:100000000C942A000C943F000C943F000C943F0089
:100010000C943F000C943F000C943F000C943F0064
:100020000C943F000C943F000C943F000C943F0054
:100030000C943F000C943F000C943F000C943F0044
:100040000C943F000C943F000C943F000C943F0034
:100050000C943F0011241FBECFE5D8E0DEBFCDBF1A
:1000600010E0A0E6B0E0E2E7F7E202C005900D92F2
:10007000A039B107D9F70E9483120C94B7130C94DE
:100080000000EF92FF920F931F937B018C0120E001
:1000900030E040E05FE40E94ED0388238CF0C8016B
:1000A000B70120E030E040E05FE40E94B9010E9427
:1000B0004D049B01AC01205030404040504806C0E8
:1000C000C801B7010E944D049B01AC01B901CA01EE
:1000D0001F910F91FF90EF900895A0E0B0E0E3E74B
:1000E000F0E00C948013DC012B01FA019C9192301A
:1000F00008F439C1EB018881823008F433C19430AF
:1001000069F4843009F02FC111969C91119789816F
:10011000981709F428C1A0E6B0E025C1843009F49D
:1001200021C18230A9F4923009F01DC19A01AD01BC
:1001300088E0EA010990AE01E90109929E0181502F
:10014000C1F7E201898111969C918923818308C1BD
:10015000923009F407C112962D903C901397EB0151
:100160008A819B811496AD90BD90CD90DC901797BD
:10017000EC80FD800E811F819101281B390BB90194
:1001800037FF04C066277727621B730B6032710547
:100190000CF061C0121613066CF537014801062EEB
:1001A00004C096948794779467940A94D2F721E0D8
:1001B00030E040E050E004C0220F331F441F551FC1
:1001C0006A95D2F721503040404050402E213F21C7
:1001D00040235123211531054105510521F021E02E
:1001E00030E040E050E079018A01E628F72808294C
:1001F00019293CC0232BD1F1260E371E35014601AB
:10020000062E04C096948794779467940A94D2F744
:1002100021E030E040E050E004C0220F331F441FD3
:10022000551F6A95D2F721503040404050402A2156
:100230003B214C215D21211531054105510521F05E
:1002400021E030E040E050E059016A01A628B728DB
:10025000C828D9280BC0821593052CF01C01AA24AC
:10026000BB24650103C0EE24FF24870111969C91F5
:10027000D20111968C91981709F445C0992339F051
:10028000A80197012A193B094C095D0906C0A6017E
:1002900095012E193F09400B510B57FD08C01182E3
:1002A0003382228224833583468357831DC081E0B5
:1002B00081833382228288279927DC01821B930B5A
:1002C000A40BB50B84839583A683B7830DC0220F3F
:1002D000331F441F551F24833583468357838281F0
:1002E000938101979383828324813581468157814D
:1002F000DA01C9010197A109B1098F5F9F4FAF4F83
:10030000BF4328F30BC0918333822282EA0CFB1C8B
:100310000C1D1D1DE482F5820683178383E0808314
:10032000248135814681578157FF1AC0C901AA2708
:1003300097FDA095BA2F81709070A070B0705695FF
:10034000479537952795822B932BA42BB52B848328
:100350009583A683B7838281938101969383828359
:10036000DF0101C0D201CD01CDB7DEB7E2E10C94CF
:100370009C13A0E2B0E0EFEBF1E00C948C136983E6
:100380007A838B839C832D833E834F835887E9E058
:10039000EE2EF12CEC0EFD1ECE010196B7010E944F
:1003A00076058E010F5E1F4FCE010596B8010E94A3
:1003B00076058A8991E089278A8BC701B801AE0149
:1003C000475E5F4F0E946D000E94A104A096E6E088
:1003D0000C94A813A0E2B0E0E0EFF1E00C948C13D1
:1003E00069837A838B839C832D833E834F835887D5
:1003F000F9E0EF2EF12CEC0EFD1ECE010196B701B7
:100400000E9476058E010F5E1F4FCE010596B80142
:100410000E947605C701B801AE01475E5F4F0E949A
:100420006D000E94A104A096E6E00C94A813A0E23F
:10043000B0E0EDE1F2E00C94801369837A838B8362
:100440009C832D833E834F835887CE010196BE0146
:10045000675F7F4F0E947605CE010596BE016F5EF5
:100460007F4F0E9476059985923088F08989823085
:10047000C8F0943019F4823051F404C0843029F467
:10048000923081F480E690E0C6C0923049F420E0DA
:100490009A858A89981321E02A87CE010996BBC0E4
:1004A000823049F420E09A858A89981321E02A8BCA
:1004B000CE014196B0C02D843E844F8458886D880B
:1004C0007E888F88988CEE24FF248701AA24BB2481
:1004D000650140E050E060E070E0E0E0F0E0C10184
:1004E00081709070892BE9F0E60CF71C081D191D2E
:1004F0009A01AB012A0D3B1D4C1D5D1D80E090E073
:10050000A0E0B0E0E614F7040805190520F481E046
:1005100090E0A0E0B0E0BA01A901480F591F6A1F9E
:100520007B1FAA0CBB1CCC1CDD1C97FE08C081E005
:1005300090E0A0E0B0E0A82AB92ACA2ADB2A3196C6
:10054000E032F10549F0660C771C881C991C569422
:10055000479437942794C3CFFA85EA892B893C893D
:100560008B859C85280F391F2E5F3F4F17C0CA010E
:1005700081709070892B61F016950795F794E79438
:1005800080E090E0A0E0B0E8E82AF92A0A2B1B2BD3
:1005900076956795579547952F5F3F4F77FDE7CF46
:1005A0000CC0440F551F661F771F17FD4160EE0CEE
:1005B000FF1C001F111F21503040403090E05907B0
:1005C00090E0690790E4790760F32B8F3C8FDB01A3
:1005D000CA018F779070A070B07080349105A1052A
:1005E000B10561F447FD0AC0E114F10401051105EC
:1005F00029F0405C5F4F6F4F7F4F40781A8EFE1797
:1006000011F081E08A8F4D8F5E8F6F8F78A383E02A
:10061000898FCE0149960E94A104A096E2E10C9434
:100620009C13A8E1B0E0E7E1F3E00C948813698340
:100630007A838B839C832D833E834F835887B9E0D5
:10064000EB2EF12CEC0EFD1ECE010196B7010E949F
:1006500076058E010F5E1F4FCE010596B8010E94F0
:1006600076052985223008F47EC03989323010F4AD
:10067000B8017CC08A859A8989278A87243011F03D
:10068000223031F4231709F06EC060E670E06EC0CE
:10069000343039F41D861E861F86188A1C861B86F8
:1006A00004C0323021F484E08987B7015FC02B8514
:1006B0003C858B899C89281B390B3C872B87ED84D3
:1006C000FE840F851889AD88BE88CF88D88CEA143F
:1006D000FB040C051D0540F4EE0CFF1C001F111F50
:1006E000215030403C872B8720E030E040E050E054
:1006F00080E090E0A0E0B0E460E070E0EA14FB0489
:100700000C051D0540F0282B392B4A2B5B2BEA18D2
:10071000FB080C091D09B695A79597958795EE0CD2
:10072000FF1C001F111F6F5F7F4F6F31710531F785
:10073000DA01C9018F779070A070B0708034910594
:10074000A105B10561F427FD0AC0E114F10401051A
:10075000110529F0205C3F4F4F4F5F4F20782D87C8
:100760003E874F87588BBE01675F7F4FCB010E944A
:10077000A1046896EAE00C94A413A8E1B0E0E3ECCD
:10078000F3E00C948C1369837A838B839C832D8391
:100790003E834F83588789E0E82EF12CEC0EFD1E36
:1007A000CE010196B7010E9476058E010F5E1F4FA4
:1007B000CE010596B8010E9476058985823040F009
:1007C0008989823028F0C701B8010E94EE0501C076
:1007D0008FEF6896E6E00C94A813A8E1B0E0E3EF91
:1007E000F3E00C948C1369837A838B839C832D8331
:1007F0003E834F83588789E0E82EF12CEC0EFD1ED6
:10080000CE010196B7010E9476058E010F5E1F4F43
:10081000CE010596B8010E9476058985823040F0A8
:100820008989823028F0C701B8010E94EE0501C015
:100830008FEF6896E6E00C94A813A8E1B0E0E3E23D
:10084000F4E00C948C1369837A838B839C832D83CF
:100850003E834F83588789E0E82EF12CEC0EFD1E75
:10086000CE010196B7010E9476058E010F5E1F4FE3
:10087000CE010596B8010E9476058985823040F048
:100880008989823028F0C701B8010E94EE0501C0B5
:1008900081E06896E6E00C94A813ACE0B0E0E3E5F4
:1008A000F4E00C94901369837A838B839C83CE014C
:1008B0000196BE016B5F7F4F0E9476058D8182306D
:1008C00061F1823050F1843021F48E81882351F11E
:1008D0002EC02F81388537FD20C06E812F31310524
:1008E0001CF06623F9F023C08EE190E0821B930B8D
:1008F00029853A854B855C8504C056954795379583
:1009000027958A95D2F76623B1F05095409530959A
:1009100021953F4F4F4F5F4F0EC020E030E040E049
:1009200050E009C02FEF3FEF4FEF5FE704C020E03A
:1009300030E040E050E8B901CA012C96E2E00C94A6
:10094000AC13DF92EF92FF920F931F93FC01E480B0
:10095000F58006811781D1808081823048F480E063
:1009600090E0A0E1B0E0E82AF92A0A2B1B2BA5C0F1
:10097000843009F49FC0823021F4EE24FF248701E3
:1009800005C0E114F1040105110519F4E0E0F0E0FF
:1009900096C0628173819FEF623879070CF05BC06B
:1009A00022E83FEF261B370B2A3131052CF020E0DF
:1009B00030E040E050E02AC0B801A701022E04C098
:1009C00076956795579547950A94D2F781E090E020
:1009D000A0E0B0E004C0880F991FAA1FBB1F2A9592
:1009E000D2F70197A109B1098E219F21A023B1233C
:1009F0000097A105B10521F081E090E0A0E0B0E012
:100A00009A01AB01282B392B4A2B5B2BDA01C90148
:100A10008F779070A070B07080349105A105B105FA
:100A200039F427FF09C0205C3F4F4F4F5F4F04C090
:100A3000215C3F4F4F4F5F4FE0E0F0E02030A0E0FF
:100A40003A07A0E04A07A0E45A0710F0E1E0F0E01E
:100A500079018A0127C06038710564F5FB01E1580E
:100A6000FF4FD801C7018F779070A070B0708034AD
:100A70009105A105B10539F4E7FE0DC080E490E0D1
:100A8000A0E0B0E004C08FE390E0A0E0B0E0E80EAA
:100A9000F91E0A1F1B1F17FF05C016950795F7942F
:100AA000E794319687E016950795F794E7948A9531
:100AB000D1F705C0EE24FF248701EFEFF0E06E2FA1
:100AC000679566276795902F9F77D794DD24D794F5
:100AD0008E2F8695492F462B582F5D29B701CA01C5
:100AE0001F910F91FF90EF90DF900895FC01DB01C3
:100AF000408151812281622F6F7770E0221F22276F
:100B0000221F9381892F880F822B282F30E0991F75
:100B10009927991F11969C93119721153105A9F5D5
:100B2000411551056105710511F482E037C082E875
:100B30009FEF13969C938E9312979A01AB0167E0F7
:100B4000220F331F441F551F6A95D1F783E08C9302
:100B50000DC0220F331F441F551F12968D919C917B
:100B60001397019713969C938E931297203080E0F1
:100B7000380780E0480780E4580758F314962D930F
:100B80003D934D935C93179708952F3F310579F46A
:100B9000411551056105710519F484E08C930895A0
:100BA00064FF03C081E08C9312C01C9210C02F57C9
:100BB000304013963C932E93129783E08C9387E0FA
:100BC000440F551F661F771F8A95D1F770641496DE
:100BD0004D935D936D937C93179708951F93DC015C
:100BE000FB019C91923008F447C08081823008F468
:100BF00043C0943051F411961C91843099F5818151
:100C0000682F70E0611B71093FC0843021F0923081
:100C100031F48230B9F18181882389F12DC0119698
:100C20001C9111978230F1F081811817D9F4129636
:100C30002D913C911397828193818217930794F0B1
:100C400028173907BCF014968D919D910D90BC9199
:100C5000A02D2481358146815781281739074A07FD
:100C60005B0718F4112341F00AC082179307A40709
:100C7000B50740F4112319F061E070E005C06FEF93
:100C80007FEF02C060E070E0CB011F910895DF9319
:100C9000CF93CDB7DEB7EDE2F0E081E58083CF9171
:100CA000DF910895DF93CF930F92CDB7DEB789839D
:100CB000EFE2F0E089818083EEE2F0E0808188233A
:100CC000DCF70F90CF91DF910895DF93CF9300D0A1
:100CD000CDB7DEB789830F900F90CF91DF91089544
:100CE000DF93CF9300D000D000D0CDB7DEB78B8399
:100CF0006C838B818695869586958A838B81877098
:100D000089838A81282F30E03E832D838D819E81C7
:100D10008130910509F443C02D813E812230310597
:100D20002CF48D819E81009771F0BCC02D813E8195
:100D30002230310509F45FC08D819E818330910599
:100D400009F485C0AFC08C818130A1F4ABE3B0E081
:100D5000EBE3F0E08081482F8981282F30E081E0AB
:100D600090E0022E02C0880F991F0A94E2F7842BAC
:100D70008C9398C0ABE3B0E0EBE3F0E08081482FC8
:100D80008981282F30E081E090E0022E02C0880F98
:100D9000991F0A94E2F7809584238C9383C08C81F9
:100DA0008130A1F4A8E3B0E0E8E3F0E08081482FCF
:100DB0008981282F30E081E090E0022E02C0880F68
:100DC000991F0A94E2F7842B8C936CC0A8E3B0E0DF
:100DD000E8E3F0E08081482F8981282F30E081E02E
:100DE00090E0022E02C0880F991F0A94E2F78095C6
:100DF00084238C9357C08C818130A1F4A5E3B0E0AB
:100E0000E5E3F0E08081482F8981282F30E081E000
:100E100090E0022E02C0880F991F0A94E2F7842BFB
:100E20008C9340C0A5E3B0E0E5E3F0E08081482F7B
:100E30008981282F30E081E090E0022E02C0880FE7
:100E4000991F0A94E2F7809584238C932BC08C81A0
:100E50008130A1F4A2E3B0E0E2E3F0E08081482F2A
:100E60008981282F30E081E090E0022E02C0880FB7
:100E7000991F0A94E2F7842B8C9314C0A2E3B0E08C
:100E8000E2E3F0E08081482F8981282F30E081E083
:100E900090E0022E02C0880F991F0A94E2F7809515
:100EA00084238C9326960FB6F894DEBF0FBECDBF79
:100EB000CF91DF910895DF93CF9300D000D0CDB7CD
:100EC000DEB789836A838981282F30E03C832B83B6
:100ED0008B819C8181309105D1F02B813C81223026
:100EE00031052CF48B819C81009761F01EC02B8111
:100EF0003C812230310581F08B819C8183309105CA
:100F000081F013C0EBE3F0E08A8180830EC0E8E358
:100F1000F0E08A81808309C0E5E3F0E08A81808384
:100F200004C0E2E3F0E08A8180830F900F900F907D
:100F30000F90CF91DF910895DF93CF9300D000D031
:100F4000CDB7DEB78AE090E09C838B831A8219824A
:100F50001A82198253C189819A81880F991F880F3B
:100F6000991FFC01E859FF4F8081882309F047C091
:100F700089819A81880F991F880F991FFC01E65972
:100F8000FF4F80818130E9F4AAE3B0E0EAE3F0E0CA
:100F90008081482F89819A81880F991F880F991F16
:100FA000FC01E759FF4F8081282F30E081E090E07D
:100FB000022E02C0880F991F0A94E2F7842B8C93AB
:100FC00018C1AAE3B0E0EAE3F0E08081482F89810C
:100FD0009A81880F991F880F991FFC01E759FF4FCD
:100FE0008081282F30E081E090E0022E02C0880F3F
:100FF000991F0A94E2F7809584238C93FAC0898123
:101000009A81880F991F880F991FFC01E859FF4F9B
:101010008081813009F047C089819A81880F991FAA
:10102000880F991FFC01E659FF4F80818130E9F458
:10103000A7E3B0E0E7E3F0E08081482F89819A815F
:10104000880F991F880F991FFC01E759FF4F808176
:10105000282F30E081E090E0022E02C0880F991F17
:101060000A94E2F7842B8C93C4C0A7E3B0E0E7E3D3
:10107000F0E08081482F89819A81880F991F880F1D
:10108000991FFC01E759FF4F8081282F30E081E054
:1010900090E0022E02C0880F991F0A94E2F7809513
:1010A00084238C93A6C089819A81880F991F880F09
:1010B000991FFC01E859FF4F8081823009F047C039
:1010C00089819A81880F991F880F991FFC01E65921
:1010D000FF4F80818130E9F4A4E3B0E0E4E3F0E085
:1010E0008081482F89819A81880F991F880F991FC5
:1010F000FC01E759FF4F8081282F30E081E090E02C
:10110000022E02C0880F991F0A94E2F7842B8C9359
:1011100070C0A4E3B0E0E4E3F0E08081482F89816F
:101120009A81880F991F880F991FFC01E759FF4F7B
:101130008081282F30E081E090E0022E02C0880FED
:10114000991F0A94E2F7809584238C9352C0898179
:101150009A81880F991F880F991FFC01E859FF4F4A
:101160008081833009F045C089819A81880F991F59
:10117000880F991FFC01E659FF4F80818130E9F407
:10118000A1E3B0E0E1E3F0E08081482F89819A811A
:10119000880F991F880F991FFC01E759FF4F808125
:1011A000282F30E081E090E0022E02C0880F991FC6
:1011B0000A94E2F7842B8C931CC0A1E3B0E0E1E336
:1011C000F0E08081482F89819A81880F991F880FCC
:1011D000991FFC01E759FF4F8081282F30E081E003
:1011E00090E002C0880F991F2A95E2F7809584232A
:1011F0008C9389819A8101969A83898329813A8186
:101200008B819C81281739070CF4A5CE0F900F9085
:101210000F900F90CF91DF910895DF93CF9300D07F
:10122000CDB7DEB79A838983E0E4F0E089819A81C3
:10123000892F99278083E9E2F0E089818083EAE2BF
:10124000F0E088E18083E0E4F0E08EE880830F90B6
:101250000F90CF91DF910895DF93CF930F92CDB789
:10126000DEB78983EBE2F0E08081882F90E0807226
:1012700090700097B9F3ECE2F0E0898180830F90E1
:10128000CF91DF910895DF93CF93CDB7DEB7EBE237
:10129000F0E080818823DCF7ECE2F0E08081CF9100
:1012A000DF910895DF93CF93CDB7DEB72E970FB6BA
:1012B000F894DEBF0FBECDBF8AE060E00E947006EA
:1012C00080E090E0A0EAB1E48B879C87AD87BE8781
:1012D0006B857C858D859E8520E030E04AE755E46E
:1012E0000E941702DC01CB018F839887A987BA87F8
:1012F0006F81788589859A8520E030E040E85FE35A
:101300000E941D0488232CF481E090E09E838D834D
:101310003FC06F81788589859A8520E03FEF4FE750
:1013200057E40E94BD0318164CF56B857C858D85AE
:101330009E8520E030E040E251E40E941702DC018B
:10134000CB01BC01CD010E944100DC01CB019E8399
:101350008D830FC080E991E09C838B838B819C817E
:101360000197F1F79C838B838D819E8101979E83EA
:101370008D838D819E81009769F714C06F81788578
:1013800089859A850E944100DC01CB019E838D8373
:101390008D819E819A83898389819A810197F1F752
:1013A0009A83898383E30E94ED0982E30E94ED0919
:1013B00088E20E94ED098FE00E94ED0986E00E941C
:1013C000ED0981E00E94ED092E960FB6F894DEBF7C
:1013D0000FBECDBFCF91DF9108950F931F93DF9381
:1013E000CF93CDB7DEB7C156D0400FB6F894DEBF6D
:1013F0000FBECDBFFE01EF59FF4F808389E060E053
:101400000E9470068AE060E00E947006FE01EF59BB
:10141000FF4F808188232CF487E061E00E947006F2
:1014200004C087E060E00E947006FE01EF59FF4FA4
:101430008081882F90E080749070009729F086E07A
:1014400061E00E94700604C086E060E00E947006C1
:10145000FE01EF59FF4F8081882F90E080729070DD
:10146000009729F085E061E00E94700604C085E0E5
:1014700060E00E947006FE01EF59FF4F8081882FC7
:1014800090E080719070009729F084E061E00E9404
:10149000700604C084E060E00E9470068BE061E0AA
:1014A0000E947006FE01E35AFF4F80E090E0A0E248
:1014B000B1E480839183A283B3838E01075A1F4FC7
:1014C000FE01E35AFF4F60817181828193812BEA93
:1014D0003AEA4AEA50E40E941702DC01CB01F80123
:1014E00080839183A283B383FE01E75AFF4F60811B
:1014F00071818281938120E030E040E85FE30E94C7
:101500001D04882334F4FE01E85AFF4F81E08083F4
:10151000E0C0FE01E75AFF4F6081718182819381B3
:1015200020E030E04FE753E40E94BD0318160CF0B2
:10153000C0C0FE01E35AFF4F6081718182819381B7
:1015400020E030E04AE754E40E941103DC01CB01C3
:10155000FE01EC5AFF4F80839183A283B3838E01F7
:10156000005B1F4FFE01EC5AFF4F60817181828149
:10157000938120E030E04AE755E40E941702DC0145
:10158000CB01F80180839183A283B383FE01E05BEA
:10159000FF4F608171818281938120E030E040E8DB
:1015A0005FE30E941D04882344F4FE01E25BFF4FC9
:1015B00081E090E09183808364C0FE01E05BFF4F97
:1015C000608171818281938120E03FEF4FE757E492
:1015D0000E94BD0318160CF043C0FE01EC5AFF4FE9
:1015E000608171818281938120E030E040E251E4AA
:1015F0000E941702DC01CB018E01025B1F4FBC0170
:10160000CD010E944100DC01CB01F8019183808370
:101610001FC0FE01E45BFF4F80E991E0918380836E
:10162000FE01E45BFF4F808191810197F1F7FE019C
:10163000E45BFF4F91838083DE01A25BBF4FFE011D
:10164000E25BFF4F80819181019711969C938E936D
:10165000FE01E25BFF4F808191810097D1F64BC084
:101660008E01025B1F4FFE01E05BFF4F60817181C5
:10167000828193810E944100DC01CB01F8019183BA
:101680008083DE01A65BBF4FFE01E25BFF4F8081DE
:10169000918111969C938E93FE01E65BFF4F8081B2
:1016A00091810197F1F7FE01E65BFF4F9183808303
:1016B00022C08E01085A1F4FFE01E75AFF4F60817A
:1016C0007181828193810E944100DC01CB01F8018C
:1016D0008083DE01A75BBF4FFE01E85AFF4F808188
:1016E0008C93FE01E75BFF4F80818A95F1F7FE0145
:1016F000E75BFF4F80838BE060E00E947006FE0195
:10170000EB5BFF4F80E090E0A8E4B3E4808391833B
:10171000A283B3838E010F5B1F4FFE01EB5BFF4F74
:1017200060817181828193812BEA3AEA4AEA50E42E
:101730000E941702DC01CB01F80180839183A28310
:10174000B383FE01EF5BFF4F6081718182819381E2
:1017500020E030E040E85FE30E941D04882334F479
:1017600081E0FE01E05CFF4F80839DC0FE01EF5BE6
:10177000FF4F608171818281938120E030E04FE7EB
:1017800053E40E94BD0318160CF07EC0FE01EB5B13
:10179000FF4F608171818281938120E030E04AE7D0
:1017A00054E40E941103DC01CB018CAF9DAFAEAFBE
:1017B000BFAF6CAD7DAD8EAD9FAD20E030E04AE7B0
:1017C00055E40E941702DC01CB0188AF99AFAAAFA4
:1017D000BBAF68AD79AD8AAD9BAD20E030E040E8AD
:1017E0005FE30E941D0488232CF481E090E09FAB0E
:1017F0008EAB3FC068AD79AD8AAD9BAD20E03FEFC9
:101800004FE757E40E94BD0318164CF56CAD7DAD53
:101810008EAD9FAD20E030E040E251E40E9417021F
:10182000DC01CB01BC01CD010E944100DC01CB01F8
:101830009FAB8EAB0FC080E991E09DAB8CAB8CA9C8
:101840009DA90197F1F79DAB8CAB8EA99FA901973C
:101850009FAB8EAB8EA99FA9009769F72DC068AD8D
:1018600079AD8AAD9BAD0E944100DC01CB019FABFD
:101870008EAB8EA99FA99BAB8AAB8AA99BA9019726
:10188000F1F79BAB8AAB18C0FE01EF5BFF4F6081A5
:101890007181828193810E944100DC01CB01FE01B4
:1018A000E05CFF4F8083FE01E05CFF4F808189ABED
:1018B00089A98A95F1F789ABFE01EF59FF4F808125
:1018C000882F90E088709070009729F087E061E0A1
:1018D0000E94700604C087E060E00E947006FE016E
:1018E000EF59FF4F8081882F90E0847090700097AF
:1018F00029F086E061E00E94700604C086E060E0A6
:101900000E947006FE01EF59FF4F8081882F90E002
:1019100082709070009729F085E061E00E94700667
:1019200004C085E060E00E947006FE01EF59FF4FA1
:101930008081882F90E081709070882329F084E066
:1019400061E00E94700604C084E060E00E947006BE
:101950008BE061E00E94700680E090E0A0E2B1E4DC
:101960008DA79EA7AFA7B8AB6DA57EA58FA598A99B
:101970002BEA3AEA4AEA50E40E941702DC01CB0162
:1019800089A79AA7ABA7BCA769A57AA58BA59CA593
:1019900020E030E040E85FE30E941D0488231CF44F
:1019A00081E088A791C069A57AA58BA59CA520E0B8
:1019B00030E04FE753E40E94BD0318160CF07BC0E3
:1019C0006DA57EA58FA598A920E030E04AE754E4F4
:1019D0000E941103DC01CB018CA39DA3AEA3BFA386
:1019E0006CA17DA18EA19FA120E030E04AE755E4E3
:1019F0000E941702DC01CB0188A399A3AAA3BBA371
:101A000068A179A18AA19BA120E030E040E85FE3D2
:101A10000E941D0488232CF481E090E09F8F8E8F1C
:101A20003FC068A179A18AA19BA120E03FEF4FE7C9
:101A300057E40E94BD0318164CF56CA17DA18EA140
:101A40009FA120E030E040E251E40E941702DC0157
:101A5000CB01BC01CD010E944100DC01CB019F8F75
:101A60008E8F0FC080E991E09D8F8C8F8C8D9D8D26
:101A70000197F1F79D8F8C8F8E8D9F8D01979F8F92
:101A80008E8F8E8D9F8D009769F724C068A179A1F4
:101A90008AA19BA10E944100DC01CB019F8F8E8F08
:101AA0008E8D9F8D9B8F8A8F8A8D9B8D0197F1F7ED
:101AB0009B8F8A8F0FC069A57AA58BA59CA50E94D4
:101AC0004100DC01CB0188A788A5898F898D8A9583
:101AD000F1F7898F8BE060E00E94700680E090E073
:101AE000A8E4B3E48D8B9E8BAF8BB88F6D897E8914
:101AF0008F89988D2BEA3AEA4AEA50E40E9417024D
:101B0000DC01CB01898B9A8BAB8BBC8B69897A8981
:101B10008B899C8920E030E040E85FE30E941D044F
:101B200088231CF481E0888B91C069897A898B892C
:101B30009C8920E030E04FE753E40E94BD03181673
:101B40000CF07BC06D897E898F89988D20E030E014
:101B50004AE754E40E941103DC01CB018C879D8786
:101B6000AE87BF876C857D858E859F8520E030E0C0
:101B70004AE755E40E941702DC01CB018887998768
:101B8000AA87BB87688579858A859B8520E030E0B8
:101B900040E85FE30E941D0488232CF481E090E07C
:101BA0009F838E833FC0688579858A859B8520E0E9
:101BB0003FEF4FE757E40E94BD0318164CF56C85C4
:101BC0007D858E859F8520E030E040E251E40E94D3
:101BD0001702DC01CB01BC01CD010E944100DC01F8
:101BE000CB019F838E830FC080E991E09D838C831E
:101BF0008C819D810197F1F79D838C838E819F81DC
:101C000001979F838E838E819F81009769F724C0FF
:101C1000688579858A859B850E944100DC01CB011E
:101C20009F838E838E819F819B838A838A819B8100
:101C30000197F1F79B838A830FC069897A898B8921
:101C40009C890E944100DC01CB01888B88898983B3
:101C500089818A95F1F78983CF59DF4F0FB6F894C0
:101C6000DEBF0FBECDBFCF91DF911F910F910895C1
:101C70000F931F93DF93CF93CDB7DEB7C156D040FC
:101C80000FB6F894DEBF0FBECDBFFE01EF59FF4F78
:101C9000808389E061E00E9470068AE060E00E9433
:101CA0007006FE01EF59FF4F8081882F90E0887009
:101CB0009070009729F087E061E00E94700604C0F0
:101CC00087E060E00E947006FE01EF59FF4F8081BF
:101CD000882F90E084709070009729F086E061E092
:101CE0000E94700604C086E060E00E947006FE015B
:101CF000EF59FF4F8081882F90E08270907000979D
:101D000029F085E061E00E94700604C085E060E093
:101D10000E947006FE01EF59FF4F8081882F90E0EE
:101D200081709070882329F084E061E00E94700641
:101D300004C084E060E00E9470068BE061E00E94D5
:101D40007006FE01E35AFF4F80E090E0A0E2B1E4AC
:101D500080839183A283B3838E01075A1F4FFE01B4
:101D6000E35AFF4F60817181828193812BEA3AEAC5
:101D70004AEA50E40E941702DC01CB01F80180839B
:101D80009183A283B383FE01E75AFF4F6081718183
:101D90008281938120E030E040E85FE30E941D04EF
:101DA000882334F4FE01E85AFF4F81E08083E0C0CD
:101DB000FE01E75AFF4F608171818281938120E0AB
:101DC00030E04FE753E40E94BD0318160CF0C0C08A
:101DD000FE01E35AFF4F608171818281938120E08F
:101DE00030E04AE754E40E941103DC01CB01FE011C
:101DF000EC5AFF4F80839183A283B3838E01005BF3
:101E00001F4FFE01EC5AFF4F6081718182819381E7
:101E100020E030E04AE755E40E941702DC01CB01E4
:101E2000F80180839183A283B383FE01E05BFF4FBF
:101E3000608171818281938120E030E040E85FE33E
:101E40000E941D04882344F4FE01E25BFF4F81E001
:101E500090E09183808364C0FE01E05BFF4F60816E
:101E600071818281938120E03FEF4FE757E40E9428
:101E7000BD0318160CF043C0FE01EC5AFF4F608101
:101E800071818281938120E030E040E251E40E9440
:101E90001702DC01CB018E01025B1F4FBC01CD019B
:101EA0000E944100DC01CB01F801918380831FC0B7
:101EB000FE01E45BFF4F80E991E091838083FE01A6
:101EC000E45BFF4F808191810197F1F7FE01E45BB4
:101ED000FF4F91838083DE01A25BBF4FFE01E25B77
:101EE000FF4F80819181019711969C938E93FE0103
:101EF000E25BFF4F808191810097D1F64BC08E014C
:101F0000025B1F4FFE01E05BFF4F608171818281A8
:101F100093810E944100DC01CB01F8019183808311
:101F2000DE01A65BBF4FFE01E25BFF4F8081918126
:101F300011969C938E93FE01E65BFF4F8081918109
:101F40000197F1F7FE01E65BFF4F9183808322C08A
:101F50008E01085A1F4FFE01E75AFF4F60817181C1
:101F6000828193810E944100DC01CB01F8018083D2
:101F7000DE01A75BBF4FFE01E85AFF4F80818C93C3
:101F8000FE01E75BFF4F80818A95F1F7FE01E75B79
:101F9000FF4F80838BE060E00E947006FE01EB5BE8
:101FA000FF4F80E090E0A8E4B3E480839183A283B4
:101FB000B3838E010F5B1F4FFE01EB5BFF4F608110
:101FC0007181828193812BEA3AEA4AEA50E40E94C5
:101FD0001702DC01CB01F80180839183A283B383D4
:101FE000FE01EF5BFF4F608171818281938120E070
:101FF00030E040E85FE30E941D04882334F481E070
:10200000FE01E05CFF4F80839DC0FE01EF5BFF4F50
:10201000608171818281938120E030E04FE753E459
:102020000E94BD0318160CF07EC0FE01EB5BFF4F53
:10203000608171818281938120E030E04AE754E43D
:102040000E941103DC01CB018CAF9DAFAEAFBFAFDF
:102050006CAD7DAD8EAD9FAD20E030E04AE755E43C
:102060000E941702DC01CB0188AF99AFAAAFBBAFCA
:1020700068AD79AD8AAD9BAD20E030E040E85FE32C
:102080000E941D0488232CF481E090E09FAB8EAB6E
:102090003FC068AD79AD8AAD9BAD20E03FEF4FE723
:1020A00057E40E94BD0318164CF56CAD7DAD8EADA6
:1020B0009FAD20E030E040E251E40E941702DC01D5
:1020C000CB01BC01CD010E944100DC01CB019FABE3
:1020D0008EAB0FC080E991E09DAB8CAB8CA99DA924
:1020E0000197F1F79DAB8CAB8EA99FA901979FAB90
:1020F0008EAB8EA99FA9009769F72DC068AD79AD09
:102100008AAD9BAD0E944100DC01CB019FAB8EAB41
:102110008EA99FA99BAB8AAB8AA99BA90197F1F7CE
:102120009BAB8AAB18C0FE01EF5BFF4F60817181F2
:10213000828193810E944100DC01CB01FE01E05CC1
:10214000FF4F8083FE01E05CFF4F808189AB89A94E
:102150008A95F1F789ABFE01EF59FF4F8081882303
:102160002CF487E061E00E94700604C087E060E024
:102170000E947006FE01EF59FF4F8081882F90E08A
:1021800080749070009729F086E061E00E947006EC
:1021900004C086E060E00E947006FE01EF59FF4F28
:1021A0008081882F90E080729070009729F085E000
:1021B00061E00E94700604C085E060E00E94700645
:1021C000FE01EF59FF4F8081882F90E08071907061
:1021D000009729F084E061E00E94700604C084E06A
:1021E00060E00E9470068BE061E00E94700680E073
:1021F00090E0A0E2B1E48DA79EA7AFA7B8AB6DA514
:102200007EA58FA598A92BEA3AEA4AEA50E40E94F3
:102210001702DC01CB0189A79AA7ABA7BCA769A5C8
:102220007AA58BA59CA520E030E040E85FE30E9402
:102230001D0488231CF481E088A791C069A57AA5B4
:102240008BA59CA520E030E04FE753E40E94BD033E
:1022500018160CF07BC06DA57EA58FA598A920E06F
:1022600030E04AE754E40E941103DC01CB018CA367
:102270009DA3AEA3BFA36CA17DA18EA19FA120E0D1
:1022800030E04AE755E40E941702DC01CB0188A345
:1022900099A3AAA3BBA368A179A18AA19BA120E0CD
:1022A00030E040E85FE30E941D0488232CF481E0C5
:1022B00090E09F8F8E8F3FC068A179A18AA19BA1DA
:1022C00020E03FEF4FE757E40E94BD0318164CF59E
:1022D0006CA17DA18EA19FA120E030E040E251E4FD
:1022E0000E941702DC01CB01BC01CD010E9441001C
:1022F000DC01CB019F8F8E8F0FC080E991E09D8F15
:102300008C8F8C8D9D8D0197F1F79D8F8C8F8E8D8D
:102310009F8D01979F8F8E8F8E8D9F8D009769F770
:1023200024C068A179A18AA19BA10E944100DC017F
:10233000CB019F8F8E8F8E8D9F8D9B8F8A8F8A8DE5
:102340009B8D0197F1F79B8F8A8F0FC069A57AA5A6
:102350008BA59CA50E944100DC01CB0188A788A524
:10236000898F898D8A95F1F7898F8BE060E00E94D3
:10237000700680E090E0A8E4B3E48D8B9E8BAF8B79
:10238000B88F6D897E898F89988D2BEA3AEA4AEA5F
:1023900050E40E941702DC01CB01898B9A8BAB8B36
:1023A000BC8B69897A898B899C8920E030E040E880
:1023B0005FE30E941D0488231CF481E0888B91C098
:1023C00069897A898B899C8920E030E04FE753E462
:1023D0000E94BD0318160CF07BC06D897E898F8921
:1023E000988D20E030E04AE754E40E941103DC01BC
:1023F000CB018C879D87AE87BF876C857D858E8559
:102400009F8520E030E04AE755E40E941702DC0196
:10241000CB0188879987AA87BB87688579858A8554
:102420009B8520E030E040E85FE30E941D048823A4
:102430002CF481E090E09F838E833FC0688579858E
:102440008A859B8520E03FEF4FE757E40E94BD035C
:1024500018164CF56C857D858E859F8520E030E0D3
:1024600040E251E40E941702DC01CB01BC01CD0126
:102470000E944100DC01CB019F838E830FC080E965
:1024800091E09D838C838C819D810197F1F79D83E1
:102490008C838E819F8101979F838E838E819F8104
:1024A000009769F724C0688579858A859B850E9495
:1024B0004100DC01CB019F838E838E819F819B83B2
:1024C0008A838A819B810197F1F79B838A830FC05E
:1024D00069897A898B899C890E944100DC01CB0142
:1024E000888B8889898389818A95F1F78983CF5977
:1024F000DF4F0FB6F894DEBF0FBECDBFCF91DF9197
:102500001F910F910895DF93CF93CDB7DEB76D97ED
:102510000FB6F894DEBF0FBECDBF0E949C070E948D
:10252000470687E690E00E940D0980E090E0A0E277
:10253000B1E4898F9A8FAB8FBC8F698D7A8D8B8D2B
:102540009C8D20E030E04AE755E40E941702DC0150
:10255000CB018D8B9E8BAF8BB88F6D897E898F89D8
:10256000988D20E030E040E85FE30E941D0488235E
:102570002CF481E090E09C8B8B8B3FC06D897E8931
:102580008F89988D20E03FEF4FE757E40E94BD030D
:1025900018164CF5698D7A8D8B8D9C8D20E030E07E
:1025A00040E251E40E941702DC01CB01BC01CD01E5
:1025B0000E944100DC01CB019C8B8B8B0FC080E91A
:1025C00091E09A8B898B89899A890197F1F79A8B87
:1025D000898B8B899C8901979C8B8B8B8B899C89A0
:1025E000009769F714C06D897E898F89988D0E9444
:1025F0004100DC01CB019C8B8B8B8B899C89988B58
:102600008F878F8598890197F1F7988B8F870E9424
:1026100043098D8F8D8D0E94520680E090E0A0E2EC
:10262000B1E48B879C87AD87BE876B857C858D8564
:102630009E8520E030E04AE755E40E941702DC0165
:10264000CB018F839887A987BA876F817885898521
:102650009A8520E030E040E85FE30E941D04882373
:102660002CF481E090E09E838D833FC06F8178855C
:1026700089859A8520E03FEF4FE757E40E94BD032C
:1026800018164CF56B857C858D859E8520E030E0A5
:1026900040E251E40E941702DC01CB01BC01CD01F4
:1026A0000E944100DC01CB019E838D830FC080E935
:1026B00091E09C838B838B819C810197F1F79C83B4
:1026C0008B838D819E8101979E838D838D819E81D9
:1026D000009769F72ACF6F81788589859A850E944E
:1026E0004100DC01CB019E838D838D819E819A8385
:1026F000898389819A810197F1F79A83898315CF1C
:102700002F923F924F925F926F927F928F929F9201
:10271000AF92BF92CF92DF92EF92FF920F931F93EF
:10272000CF93DF93CDB7DEB7CA1BDB0B0FB6F894A0
:10273000DEBF0FBECDBF09942A88398848885F84E0
:102740006E847D848C849B84AA84B984C884DF8051
:10275000EE80FD800C811B81AA81B981CE0FD11D35
:102760000FB6F894DEBF0FBECDBFED010895F8940B
:02277000FFCF99
:102772000000000000000000010000000101000054
:102782000102000001030000010400000105010034
:10279200010600000107010003000000030201001E
:00000001FF
